:0400000060EF3DF080
:107A4E0027C049F028C04AF0120027C04DF028C0C8
:107A5E004EF0120027C04BF028C04CF01200286EDA
:107A6E00285055EC3DF0120092EC3DF042EC3DF00A
:107A7E00A6EC3DF01200600ED36E000ED26E000E1C
:107A8E009B6E000E9A6E12009EBA50EF3DF053EFB1
:107A9E003DF0010E54EF3DF0000E1200276E9EA831
:107AAE005BEF3DF05DEF3DF056EF3DF027C0ADFFD3
:107ABE00120000EE01F0260EEE6AE806FDE1000E61
:107ACE00F86E0001CEEF3EF0420E426E000E436E97
:107ADE00000E386E000E396E40C03AF041C03BF0D9
:107AEE00420E3C6E000E3D6EC5EC3DF012009EAA9D
:107AFE0083EF3DF085EF3DF07EEF3DF0000E266EFC
:107B0E00ABA28CEF3DF08EEF3DF090EF3DF0AB98D9
:107B1E00AB88AE501200000E896E000E8A6E000EFB
:107B2E008B6ECF0E926E9368BF0E946E1F0E0F016A
:107B3E005D6F030E5C6F000E5B6FF18E1200080E10
:107B4E00A76E900EAB6E240EAC6E080EAF6E020ECC
:107B5E007D6E000E276E000E286E2CEC3DF0000E92
:107B6E00276E000E286E31EC3DF0000E276E000ED3
:107B7E00286E27EC3DF0000E266E12003AC03EF045
:107B8E003BC03FF0D9EF3DF038C032F039C033F092
:107B9E003E0E346E000E356E3CC036F03DC037F0F2
:107BAE00ECEC3DF03EC0F6FF3FC0F7FF0800F5508D
:107BBE000009D8A4E5EF3DF0E7EF3DF0CBEF3DF047
:107BCE00000E396E000E386E120034C0D9FF35C06B
:107BDE00DAFFDECFF6FFDDCFF7FF0800F550250AFE
:107BEE00D8A4FCEF3DF0FEEF3DF016EF3EF034C0B2
:107BFE00D9FF35C0DAFFDE2A000EDD22000E226E1E
:107C0E00000E216E21C025F02368246834C0D9FFF0
:107C1E0035C0DAFFDE2A000EDD222AEF3EF034C038
:107C2E00D9FF35C0DAFFDECFF6FFDDCFF7FF080054
:107C3E00F550296E2A6A32C02BF033C02CF02BEC93
:107C4E003EF00DEF3EF012002B502C10D8B432EF58
:107C5E003EF034EF3EF03DEF3EF02B502C10D8A40A
:107C6E003BEF3EF03DEF3EF042EF3EF0295036EC5A
:107C7E003DF075EF3EF020EE09F02B50D9262C503A
:107C8E00DA22DE50DE10D8B44FEF3EF051EF3EF068
:107C9E006CEF3EF020EE09F02B50D9262C50DA2254
:107CAE0010EE03F02B50E1262C50E222DE50E65C63
:107CBE00E650800A316EDE50800A3158D8B06AEF35
:107CCE003EF06CEF3EF075EF3EF020EE03F02B50E1
:107CDE00D9262C50DA22DE2A000EDD221200000EEA
:107CEE002C6E28BE7FEF3EF07DEF3EF085EF3EF02E
:107CFE00276C281ED8B0282A010E2C6E2ABE8CEFB7
:107D0E003EF08AEF3EF090EF3EF0296C2A1ED8B07E
:107D1E002A2A29502A10D8B497EF3EF099EF3EF058
:107D2E00BDEF3EF0010E2B6EA1EF3EF0D89029363E
:107D3E002A362B2A2AAEA6EF3EF0A8EF3EF09DEF94
:107D4E003EF02950275C2A502858D8A0B1EF3EF0BB
:107D5E00B3EF3EF0B7EF3EF02950275E2A50285A77
:107D6E00D8902A3229322B2EA8EF3EF02C50D8B4C0
:107D7E00C3EF3EF0C5EF3EF0C9EF3EF0276C281E74
:107D8E00D8B0282A27C027F028C028F012003BECD4
:107D9E003DF0000E466E000E476E670E406E7F0E73
:107DAE00416E6BEC3DF0E50E406E7F0E416E6BEC5E
:107DBE003DF03EEF3FF04BEC3DF00009D8B4EAEF5A
:107DCE003EF0ECEF3EF011EF3FF07EEC3DF0486EF2
:107DDE006F0E4818D8B4F6EF3EF0F8EF3EF001EF14
:107DEE003FF04F0E4818D8A4FFEF3EF001EF3FF0E2
:107DFE0005EF3FF0010E476E11EF3FF0990E406E0A
:107E0E007F0E416E6BEC3DF0CB0E406E7F0E416EE1
:107E1E006BEC3DF046C027F0286A000E2A6E070E66
:107E2E00296E76EC3EF027502810D8A421EF3FF0B3
:107E3E0023EF3FF035EF3FF089BA28EF3FF02BEFFD
:107E4E003FF0010E2CEF3FF0000EFF0A446E443A55
:107E5E00444689504418DF0B4418896E410E446E17
:107E6E00EE0EE82EFED7442EFCD700D0462A475001
:107E7E00D8B444EF3FF046EF3FF0E2EF3EF0DF0EB6
:107E8E00406E7E0E416E6BEC3DF02F0E406E7F0EFF
:107E9E00416E6BEC3DF0898A020E456E450E446EC6
:107EAE00AA0EE82EFED7442EFCD7452EFAD7899A75
:107EBE00190E456E190E446EC20EE82EFED7442ED4
:107ECE00FCD7452EFAD700D052EF3FF000EF00F06E
:107EDE0000457863656C6C656E742C207369207434
:107EEE0075206C6973206365206D657373616765BA
:107EFE002C20746120636172746520657420746136
:107F0E0020636F6E66696775726174696F6E207338
:107F1E006F6E7420636F727265637465732E0D0AD3
:107F2E00005475207065757820636F6D6D656E6396
:107F3E006572206C65206C61626F7261746F69721C
:107F4E00652E20416D7573652D746F6920626965AC
:107F5E006E2E2E2E0D0A0D0A000D0A0D0A436F7598
:107F6E00636F752C206327657374206C65205049F0
:107F7E004331384632354B3830207175692074657F
:107F8E00207061726C6520210D0A00547520646F9B
:107F9E006973207461706572206C6120746F7563F3
:107FAE006865206F206F75204F20736920747520CF
:107FBE006D27656E74656E64732E0D0A0054752000
:107FCE00617320636F6D70726973203F20284F2F8D
:107FDE004E290D0A0D0A005475206D27656E7465C5
:107FEE006E6473203F20284F2F4E290D0A0D0A0074
:017FFE000082
:020000040020DA
:08000000FFFFFFFFFFFFFFFF00
:020000040030CA
:0E00000015027F7CFF8991FF0FC00FE00F40BB
:00000001FF
